{
  "contractName": "ConvertLib",
  "abi": [
    {
      "inputs": [
        {
          "internalType": "uint256",
          "name": "amount",
          "type": "uint256"
        },
        {
          "internalType": "uint256",
          "name": "conversionRate",
          "type": "uint256"
        }
      ],
      "name": "convert",
      "outputs": [
        {
          "internalType": "uint256",
          "name": "convertedAmount",
          "type": "uint256"
        }
      ],
      "stateMutability": "pure",
      "type": "function"
    }
  ],
  "bytecode": "0x6101db610053600b82828239805160001a607314610046577f4e487b7100000000000000000000000000000000000000000000000000000000600052600060045260246000fd5b30600052607381538281f3fe73000000000000000000000000000000000000000030146080604052600436106100355760003560e01c806396e4ee3d1461003a575b600080fd5b610054600480360381019061004f9190610095565b61006a565b60405161006191906100e0565b60405180910390f35b6000818361007891906100fb565b905092915050565b60008135905061008f8161018e565b92915050565b600080604083850312156100a857600080fd5b60006100b685828601610080565b92505060206100c785828601610080565b9150509250929050565b6100da81610155565b82525050565b60006020820190506100f560008301846100d1565b92915050565b600061010682610155565b915061011183610155565b9250817fffffffffffffffffffffffffffffffffffffffffffffffffffffffffffffffff048311821515161561014a5761014961015f565b5b828202905092915050565b6000819050919050565b7f4e487b7100000000000000000000000000000000000000000000000000000000600052601160045260246000fd5b61019781610155565b81146101a257600080fd5b5056fea2646970667358221220bfd3bc1185a36ef70d06f47da442bc9ff0b8fefa502dec7c20f0802ef24d2c8064736f6c63430008010033",
  "immutableReferences": {},
  "source": "// SPDX-License-Identifier: MIT\r\npragma solidity ^0.8.1;\r\n\r\n// A library is like a contract with reusable code, which can be called by other contracts.\r\n// Deploying common code can reduce gas costs.\r\nlibrary ConvertLib{\r\n\tfunction convert(uint amount, uint conversionRate) public pure returns (uint convertedAmount)\r\n\t{\r\n\t\treturn amount * conversionRate;\r\n\t}\r\n}\r\n",
  "sourcePath": "C:\\Users\\HP\\Desktop\\bridge_contract\\contracts\\ConvertLib.sol",
  "compiler": {
    "name": "solc",
    "version": "0.8.1+commit.df193b15.Emscripten.clang"
  },
  "schemaVersion": "3.4.11",
  "updatedAt": "2023-02-14T11:25:51.808Z",
  "devdoc": {
    "kind": "dev",
    "methods": {},
    "version": 1
  },
  "userdoc": {
    "kind": "user",
    "methods": {},
    "version": 1
  }
}